:100000000C9446000C9465000C9465000C946500FB
:100010000C9465000C9465000C9465000C946500CC
:100020000C9465000C9465000C9465000C946500BC
:100030000C9465000C9465000C9465000C946500AC
:100040000C9465000C9465000C9472050C9465008A
:100050000C9465000C9465000C9465000C9465008C
:100060000C9465000C9465000C9465000C9465007C
:100070000C9465000C9465000C9465000C9465006C
:100080000C9465000C9465000C94650011241FBE4F
:10009000CFEFD0E1DEBFCDBF11E0A0E0B1E0E2E7FD
:1000A000F7E100E00BBF02C007900D92AC30B10742
:1000B000D9F711E0ACE0B1E001C01D92A636B1075E
:1000C000E1F70E94B7020C94B70B0C940000DF9389
:1000D000CF930F92CDB7DEB7ECE2F0E08081898359
:1000E00089810F90CF91DF910895DF93CF93CDB7A2
:1000F000DEB7E0E9F0E01082E9E2F0E08FE2808331
:10010000ABE2B0E0EBE2F0E080818D7F8C93EAE23D
:10011000F0E088E98083E5E9F0E086E08083CF9134
:10012000DF910895DF93CF93CDB7DEB7EAE3F0E038
:100130008FEF8083E7E3F0E08FEF8083E4E3F0E08C
:100140008FEF8083E1E6F0E08FEF8083E4E6F0E07C
:100150008FEF8083CF91DF9108950F931F93DF93EB
:10016000CF93CDB7DEB768970FB6F894DEBF0FBE5A
:10017000CDBF988B8F877A8B698B5C8B4B8B3E8B3B
:100180002D8B188F0F8BEBE3F0E01082E8E3F0E0AB
:100190001082E5E3F0E01082E2E6F0E01082E5E6AE
:1001A000F0E01082ABE3B0E0EF85F88980818C93BA
:1001B000A8E3B0E0E989FA8980818C93A5E3B0E0F7
:1001C000EB89FC8980818C93A2E6B0E0ED89FE8901
:1001D00080818C93A5E6B0E0EF89F88D80818C93C7
:1001E00080E090E0A6E9B3E48B879C87AD87BE876B
:1001F0006B857C858D859E8526E636E646EE54E445
:100200000E94D507DC01CB018F839887A987BA8725
:100210006F81788589859A8520E030E040E85FE34A
:100220000E942F0988232CF481E090E09E838D8327
:100230003FC06F81788589859A8520E03FEF4FE741
:1002400057E40E94CF0818164CF56B857C858D8588
:100250009E8520E030E040E251E40E94D507DC01B9
:10026000CB01BC01CD010E94FF05DC01CB019E83C7
:100270008D830FC088EB90E09C838B838B819C8166
:100280000197F1F79C838B838D819E8101979E83DB
:100290008D838D819E81009769F714C06F81788569
:1002A00089859A850E94FF05DC01CB019E838D83A1
:1002B0008D819E819A83898389819A810197F1F743
:1002C0009A838983EBE3F0E01082E8E3F0E01082A8
:1002D000E5E3F0E01082E2E6F0E01082E5E6F0E02F
:1002E0001082ED89FE891082EB89FC891082EF89EA
:1002F000F88D108268960FB6F894DEBF0FBECDBFA2
:10030000CF91DF911F910F910895DF93CF93CDB7D8
:10031000DEB766970FB6F894DEBF0FBECDBF9E87DF
:100320008D87788B6F875A8B498B3C8B2B8B8B8976
:100330009C899C01220F331F220F331FC901880F94
:10034000991F880F991F820F931F9C878B878B851E
:100350009C859E8B8D8B4D895E8955232CF48D89D0
:100360009E8907969E8B8D8B8D899E899595879505
:1003700095958795959587959A8789878B859C858F
:1003800028E030E0B9010E94590B98878F838FEFE6
:1003900090E00F8002C0880F991F0A94E2F78C83C7
:1003A00028E030E08F819885A901481B590BCA01CC
:1003B0009B838A831E821D82A7C02D813E818D85ED
:1003C0009E85DC01A20FB31F29853A858D819E8110
:1003D000820F931F9C018F859889FC01E20FF31F08
:1003E000408129853A858D819E81820F931F9C01D2
:1003F00089899A89FC01E20FF31F808184278C93FD
:1004000029853A858D819E81820F931F9C01898960
:100410009A89FC01E20FF31F8081898329853A853F
:100420008D819E81820F931F9C0189899A89DC01AD
:10043000A20FB31F29853A858D819E81820F931F5C
:100440009C0189899A89FC01E20FF31F8081982F12
:100450008C81809589238C9329853A858D819E8115
:10046000820F931F9C0189899A89DC01A20FB31F17
:1004700029853A858D819E81820F931F9C018989F0
:100480009A89FC01E20FF31F40812D813E818D8509
:100490009E85FC01E20FF31F9081898198278C8152
:1004A0008923842B8C9324E130E08A819B81A901EC
:1004B000481B590BCA018830910544F08FEF8C839B
:1004C0008A819B8108969B838A8319C08A819B813C
:1004D000843191059CF48A819B819C012C50304091
:1004E0008FEF90E0022E02C0959587950A94E2F76F
:1004F0008C8384E190E09B838A8301C01C828D8180
:100500009E8101969E838D838D819E81843091058D
:100510000CF453CF1E821D821CC02D813E818D851F
:100520009E85DC01A20FB31F2D853E858D819E81A6
:10053000F901E80FF91F808191810F8002C0969523
:1005400087950A94E2F78C938D819E8101969E8314
:100550008D838D819E8183309105FCF266960FB666
:10056000F894DEBF0FBECDBFCF91DF9108950F93FA
:100570001F93DF93CF93CDB7DEB7AC970FB6F89448
:10058000DEBF0FBECDBF0E9475000E94920078941E
:10059000EBE3F0E01082E8E3F0E01082E5E3F0E066
:1005A0001082E2E6F0E01082E5E6F0E0108280E002
:1005B00090E0A0E0B0E08B879C87AD87BE876B851D
:1005C0007C858D859E8526E636E646EE54E40E94BF
:1005D000D507DC01CB018F839887A987BA876F8104
:1005E000788589859A8520E030E040E85FE30E94C5
:1005F0002F0988232CF481E090E09E838D833FC0F7
:100600006F81788589859A8520E03FEF4FE757E431
:100610000E94CF0818164CF56B857C858D859E85CC
:1006200020E030E040E251E40E94D507DC01CB013C
:10063000BC01CD010E94FF05DC01CB019E838D83AF
:100640000FC088EB90E09C838B838B819C8101970A
:10065000F1F79C838B838D819E8101979E838D838F
:100660008D819E81009769F714C06F817885898597
:100670009A850E94FF05DC01CB019E838D838D81CD
:100680009E819A83898389819A810197F1F79A8360
:100690008983A3E2B0E0E3E2F0E0808180958C936F
:1006A0001D8A1C8AE6C01E8A1F8A188E198E1A8E11
:1006B0001B8E1C8E1D8E1E8ECE014B9622E331E0CA
:1006C0004CE051E0EC89FD89B9019F010E94850150
:1006D0008C899D89883091055CF481E090E00C88DC
:1006E00002C0880F991F0A94E2F78E8B1F8A0FC0F1
:1006F0001E8A8C899D899C012850304081E090E0C1
:10070000022E02C0880F991F0A94E2F78F8BCE0148
:10071000489698A38F8FCE0149969AA389A3CE01BC
:100720004A969CA38BA3CE01859699A788A7E0E063
:10073000F1E0FBA7EAA7F3E0FCA7EAA5FBA5008090
:100740008AA59BA501969BA78AA7E8A5F9A5008283
:1007500088A599A5019699A788A79CA591509CA7C3
:10076000ECA5EE2351F7198A188A1B8A1A8A5FC0F2
:1007700081E08F874BC02A893B89CE014B96FC01D3
:10078000E20FF31F90818F8589238823E1F18A8905
:100790009B899C01220F331FCE010196820F931F6C
:1007A000FC017E96A081B1818A899B899C01220FE0
:1007B000331FCE010196820F931FFC017E9601909C
:1007C000F081E02D90818F85892B8C938889998980
:1007D0000196998B888B888999898230910599F443
:1007E000CE0146969E01295E3F4FAE01485E5F4FA7
:1007F000FE017996DE015A96B9019F018D010E9492
:10080000AD00198A188A8F85880F8F872A893B89BE
:10081000CE018596FC01E20FF31F90818F8598171A
:1008200009F0A9CF8A899B8901969B8B8A8B8A893B
:100830009B89833091050CF49BCF88899989009717
:1008400099F0CE0146969E01295E3F4FAE01485E6B
:100850005F4FFE017996DE015A96B9019F018D0125
:100860000E94AD00198A188A8C899D8901969D8BFA
:100870008C8B8C899D898F3091050CF414CF97CE89
:10088000DF93CF93CDB7DEB76E970FB6F894DEBF88
:100890000FBECDBF98878F837A87698781E090E00C
:1008A0009E838D838AE591E09C838B83EB81FC8121
:1008B00080811E8E1D8E833721F421E030E03E8F33
:1008C0002D8F8D819E812D8D3E8D822393239E833E
:1008D0008D838B819C8101969C838B83EB81FC8132
:1008E00080811C8E1B8E843721F481E090E09C8FE8
:1008F0008B8F8D819E812B8D3C8D822393239E83B4
:100900008D838B819C8101969C838B83EB81FC8101
:1009100080811A8E198E813621F481E090E09A8FC1
:10092000898F8D819E81298D3A8D822393239E8389
:100930008D838B819C8101969C838B83EB81FC81D1
:1009400080818A838B819C8101969C838B83EB8140
:10095000FC819081188E1F8A8A81981721F481E08A
:1009600090E0988F8F8B8D819E812F89388D822387
:1009700093239E838D838B819C8101969C838B83A3
:10098000EB81FC8190811E8A1D8A8A81981721F44F
:1009900081E090E09E8B8D8B8D819E812D893E899B
:1009A000822393239E838D838B819C8101969C83DC
:1009B0008B83EB81FC81808189838B819C81019673
:1009C0009C838B83EB81FC8190811C8A1B8A8981AB
:1009D000981721F481E090E09C8B8B8B8D819E8118
:1009E0002B893C89822393239E838D838B819C81D9
:1009F00001969C838B83EB81FC8190811A8A198AF2
:100A00008981981721F481E090E09A8B898B8D8100
:100A10009E8129893A89822393239E838D838B81AA
:100A20009C8101969C838B83EB81FC818081188A59
:100A30001F86853621F481E090E0988B8F878D8129
:100A40009E812F853889822393239E838D838B817A
:100A50009C8101969C838B83EB81FC8180811E8627
:100A60001D868E3621F481E090E09E878D878D81F2
:100A70009E812D853E85822393239E838D838B814A
:100A80009C8101969C838B83EB81FC8180811C86F9
:100A90001B86843621F481E090E09C878B878D81D2
:100AA0009E812B853C85822393239E838D838B811E
:100AB0009C8101969C838B838A81882F90E0EF81B3
:100AC000F88591838083E985FA85898180838D818A
:100AD0009E816E960FB6F894DEBF0FBECDBFCF914C
:100AE000DF9108951F920F920FB60F9200905B0056
:100AF0000F9211242F933F934F935F936F937F93A4
:100B00008F939F93AF93BF93EF93FF93DF93CF9315
:100B100000D000D0CDB7DEB70E94670089838091F6
:100B2000580190915901009721F48981833709F088
:100B30004CC080915801909159018130910541F448
:100B40008981843729F01092590110925801E7CF1A
:100B500080915801909159018230910541F4898129
:100B6000813629F01092590110925801D8CF809106
:100B7000580190915901FC01E65AFE4F898180830A
:100B80008091580190915901019690935901809359
:100B9000580180915801909159018C309105A9F428
:100BA0001092590110925801CE0102969E012C5FBD
:100BB0003F4FB9010E944004009739F08A819B8120
:100BC0002C81FC01EE5CFE4F20830F900F900F9064
:100BD0000F90CF91DF91FF91EF91BF91AF919F91D6
:100BE0008F917F916F915F914F913F912F910F90D6
:100BF00000925B000F900FBE0F901F901895EF9220
:100C0000FF920F931F937B018C0120E030E040E0C6
:100C10005FE40E94FF0888238CF0C801B70120E040
:100C200030E040E05FE40E9477070E945F099B018B
:100C3000AC01205030404040504806C0C801B701C8
:100C40000E945F099B01AC01B901CA011F910F917C
:100C5000FF90EF900895A0E0B0E0E1E3F6E00C949F
:100C6000800BDC012B01FA019C91923008F439C110
:100C7000EB018881823008F433C1943069F4843008
:100C800009F02FC111969C9111978981981709F449
:100C900028C1A3E0B1E025C1843009F421C182302C
:100CA000A9F4923009F01DC19A01AD0188E0EA0172
:100CB0000990AE01E90109929E018150C1F7E2015C
:100CC000898111969C918923818308C1923009F40E
:100CD00007C112962D903C901397EB018A819B815E
:100CE0001496AD90BD90CD90DC901797EC80FD8070
:100CF0000E811F819101281B390BB90137FF04C0F8
:100D000066277727621B730B603271050CF061C098
:100D1000121613066CF537014801062E04C096948E
:100D20008794779467940A94D2F721E030E040E00A
:100D300050E004C0220F331F441F551F6A95D2F79D
:100D400021503040404050402E213F21402351232C
:100D5000211531054105510521F021E030E040E049
:100D600050E079018A01E628F728082919293CC0B2
:100D7000232BD1F1260E371E35014601062E04C065
:100D800096948794779467940A94D2F721E030E0A0
:100D900040E050E004C0220F331F441F551F6A95E6
:100DA000D2F721503040404050402A213B214C2175
:100DB0005D21211531054105510521F021E030E08B
:100DC00040E050E059016A01A628B728C828D92870
:100DD0000BC0821593052CF01C01AA24BB246501CD
:100DE00003C0EE24FF24870111969C91D201119635
:100DF0008C91981709F445C0992339F0A8019701FF
:100E00002A193B094C095D0906C0A60195012E1956
:100E10003F09400B510B57FD08C0118233822282DB
:100E200024833583468357831DC081E081833382C9
:100E3000228288279927DC01821B930BA40BB50B18
:100E400084839583A683B7830DC0220F331F441F6D
:100E5000551F24833583468357838281938101976D
:100E6000938382832481358146815781DA01C901C8
:100E70000197A109B1098F5F9F4FAF4FBF4328F37F
:100E80000BC0918333822282EA0CFB1C0C1D1D1DBA
:100E9000E482F5820683178383E080832481358191
:100EA0004681578157FF1AC0C901AA2797FDA0950F
:100EB000BA2F81709070A070B07056954795379595
:100EC0002795822B932BA42BB52B84839583A68304
:100ED000B78382819381019693838283DF0101C06E
:100EE000D201CD01CDB7DEB7E2E10C949C0BA0E2BC
:100EF000B0E0EDE7F7E00C948C0B69837A838B8389
:100F00009C832D833E834F835887E9E0EE2EF12C9E
:100F1000EC0EFD1ECE010196B7010E94880A8E01DB
:100F20000F5E1F4FCE010596B8010E94880A8A897C
:100F300091E089278A8BC701B801AE01475E5F4FF8
:100F40000E942B060E94B309A096E6E00C94A80B21
:100F5000A0E2B0E0EEEAF7E00C948C0B69837A83B0
:100F60008B839C832D833E834F835887F9E0EF2E3C
:100F7000F12CEC0EFD1ECE010196B7010E94880AED
:100F80008E010F5E1F4FCE010596B8010E94880AA0
:100F9000C701B801AE01475E5F4F0E942B060E9459
:100FA000B309A096E6E00C94A80BA0E2B0E0EBED4C
:100FB000F7E00C94800B69837A838B839C832D8369
:100FC0003E834F835887CE010196BE01675F7F4FF6
:100FD0000E94880ACE010596BE016F5E7F4F0E9477
:100FE000880A9985923088F089898230C8F09430D7
:100FF00019F4823051F404C0843029F4923081F421
:1010000083E091E0C6C0923049F420E09A858A8955
:10101000981321E02A87CE010996BBC0823049F49B
:1010200020E09A858A89981321E02A8BCE01419687
:10103000B0C02D843E844F8458886D887E888F8808
:10104000988CEE24FF248701AA24BB24650140E08C
:1010500050E060E070E0E0E0F0E0C101817090708D
:10106000892BE9F0E60CF71C081D191D9A01AB014C
:101070002A0D3B1D4C1D5D1D80E090E0A0E0B0E01E
:10108000E614F7040805190520F481E090E0A0E0DB
:10109000B0E0BA01A901480F591F6A1F7B1FAA0CB3
:1010A000BB1CCC1CDD1C97FE08C081E090E0A0E0DA
:1010B000B0E0A82AB92ACA2ADB2A3196E032F10523
:1010C00049F0660C771C881C991C569447943794F9
:1010D0002794C3CFFA85EA892B893C898B859C8527
:1010E000280F391F2E5F3F4F17C0CA0181709070C3
:1010F000892B61F016950795F794E79480E090E0CE
:10110000A0E0B0E8E82AF92A0A2B1B2B7695679510
:10111000579547952F5F3F4F77FDE7CF0CC0440FA2
:10112000551F661F771F17FD4160EE0CFF1C001F47
:10113000111F21503040403090E0590790E069077E
:1011400090E4790760F32B8F3C8FDB01CA018F7726
:101150009070A070B07080349105A105B10561F464
:1011600047FD0AC0E114F1040105110529F0405CB6
:101170005F4F6F4F7F4F40781A8EFE1711F081E05E
:101180008A8F4D8F5E8F6F8F78A383E0898FCE011A
:1011900049960E94B309A096E2E10C949C0BA8E149
:1011A000B0E0E5EDF8E00C948C0B69837A838B83D7
:1011B0009C832D833E834F83588789E0E82EF12C52
:1011C000EC0EFD1ECE010196B7010E94880A8E0129
:1011D0000F5E1F4FCE010596B8010E94880A8985CF
:1011E000823040F08989823028F0C701B8010E941E
:1011F000000B01C08FEF6896E6E00C94A80BA8E105
:10120000B0E0E5E0F9E00C948C0B69837A838B8382
:101210009C832D833E834F83588789E0E82EF12CF1
:10122000EC0EFD1ECE010196B7010E94880A8E01C8
:101230000F5E1F4FCE010596B8010E94880A89856E
:10124000823040F08989823028F0C701B8010E94BD
:10125000000B01C08FEF6896E6E00C94A80BA8E1A4
:10126000B0E0E5E3F9E00C948C0B69837A838B831F
:101270009C832D833E834F83588789E0E82EF12C91
:10128000EC0EFD1ECE010196B7010E94880A8E0168
:101290000F5E1F4FCE010596B8010E94880A89850E
:1012A000823040F08989823028F0C701B8010E945D
:1012B000000B01C081E06896E6E00C94A80BACE05E
:1012C000B0E0E5E6F9E00C94900B69837A838B83B8
:1012D0009C83CE010196BE016B5F7F4F0E94880AFE
:1012E0008D81823061F1823050F1843021F48E8121
:1012F000882351F12EC02F81388537FD20C06E81A3
:101300002F3131051CF06623F9F023C08EE190E007
:10131000821B930B29853A854B855C8504C05695C5
:101320004795379527958A95D2F76623B1F0509562
:101330004095309521953F4F4F4F5F4F0EC020E0B5
:1013400030E040E050E009C02FEF3FEF4FEF5FE7A4
:1013500004C020E030E040E050E8B901CA012C961A
:10136000E2E00C94AC0BDF92EF92FF920F931F938D
:10137000FC01E480F58006811781D1808081823074
:1013800048F480E090E0A0E1B0E0E82AF92A0A2BD6
:101390001B2BA5C0843009F49FC0823021F4EE24B9
:1013A000FF24870105C0E114F1040105110519F4BA
:1013B000E0E0F0E096C0628173819FEF62387907C8
:1013C0000CF05BC022E83FEF261B370B2A313105BA
:1013D0002CF020E030E040E050E02AC0B801A70146
:1013E000022E04C076956795579547950A94D2F7D3
:1013F00081E090E0A0E0B0E004C0880F991FAA1F30
:10140000BB1F2A95D2F70197A109B1098E219F210F
:10141000A023B1230097A105B10521F081E090E060
:10142000A0E0B0E09A01AB01282B392B4A2B5B2BB3
:10143000DA01C9018F779070A070B0708034910587
:10144000A105B10539F427FF09C0205C3F4F4F4F7C
:101450005F4F04C0215C3F4F4F4F5F4FE0E0F0E033
:101460002030A0E03A07A0E04A07A0E45A0710F0B5
:10147000E1E0F0E079018A0127C06038710564F588
:10148000FB01E158FF4FD801C7018F779070A07022
:10149000B07080349105A105B10539F4E7FE0DC0A7
:1014A00080E490E0A0E0B0E004C08FE390E0A0E032
:1014B000B0E0E80EF91E0A1F1B1F17FF05C01695A6
:1014C0000795F794E794319687E016950795F7947A
:1014D000E7948A95D1F705C0EE24FF248701EFEF4A
:1014E000F0E06E2F679566276795902F9F77D794CA
:1014F000DD24D7948E2F8695492F462B582F5D29B2
:10150000B701CA011F910F91FF90EF90DF900895EE
:10151000FC01DB01408151812281622F6F7770E0F5
:10152000221F2227221F9381892F880F822B282F89
:1015300030E0991F9927991F11969C9311972115B7
:101540003105A9F5411551056105710511F482E0D8
:1015500037C082E89FEF13969C938E9312979A015F
:10156000AB0167E0220F331F441F551F6A95D1F767
:1015700083E08C930DC0220F331F441F551F12961A
:101580008D919C911397019713969C938E9312972C
:10159000203080E0380780E0480780E4580758F39F
:1015A00014962D933D934D935C93179708952F3F79
:1015B000310579F4411551056105710519F484E08F
:1015C0008C93089564FF03C081E08C9312C01C9239
:1015D00010C02F57304013963C932E93129783E000
:1015E0008C9387E0440F551F661F771F8A95D1F7AC
:1015F000706414964D935D936D937C931797089543
:101600001F93DC01FB019C91923008F447C080815C
:10161000823008F443C0943051F411961C91843008
:1016200099F58181682F70E0611B71093FC084309A
:1016300021F0923031F48230B9F18181882389F12F
:101640002DC011961C9111978230F1F081811817ED
:10165000D9F412962D913C91139782819381821730
:10166000930794F028173907BCF014968D919D913B
:101670000D90BC91A02D248135814681578128177A
:1016800039074A075B0718F4112341F00AC0821793
:101690009307A407B50740F4112319F061E070E047
:1016A00005C06FEF7FEF02C060E070E0CB011F91DB
:1016B000089597FB092E07260AD077FD04D00CD099
:1016C00006D000201AF4709561957F4F0895F6F7C3
:1016D000909581959F4F0895AA1BBB1B51E107C0B0
:1016E000AA1FBB1FA617B70710F0A61BB70B881FB2
:1016F000991F5A95A9F780959095BC01CD01089541
:101700002F923F924F925F926F927F928F929F9211
:10171000AF92BF92CF92DF92EF92FF920F931F93FF
:10172000CF93DF93CDB7DEB7CA1BDB0B0FB6F894B0
:10173000DEBF0FBECDBF09942A88398848885F84F0
:101740006E847D848C849B84AA84B984C884DF8061
:10175000EE80FD800C811B81AA81B981CE0FD11D45
:101760000FB6F894DEBF0FBECDBFED010895F8941B
:02177000FFCFA9
:0C1772000000100000000000000000005B
:00000001FF
